:020000040800F2
:1000000000400220CD100008311000083710000811
:1000100000000000000000000000000000000000E0
:1000200000000000000000000000000095C700086C
:100030000000000000000000B1C80008A9A70008E7
:100040001D1100081D1100081D1100081D110008D8
:100050001D1100081D1100081D1100081D110008C8
:100060003D1000081D1100081D1100081D11000899
:100070001D1100081D1100081D1100081D110008A8
:100080001D110008551000081D1100081D11000861
:100090001D1100081D1100081D1100086D10000839
:1000A0001D1100081D1100081D1100089D100008F9
:0C00B0001D1100081D1100081D110008A2
:1000C00010B5064C2378002B07D1054B002B02D02E
:1000D000044800E000BF0123237010BDEC010020A4
:1000E00000000000A0D90008044B10B5002B03D07D
:1000F0000349044800E000BF10BDC04600000000F6
:10010000F0010020A0D90008002243088B4274D3DC
:1001100003098B425FD3030A8B4244D3030B8B4208
:1001200028D3030C8B420DD3FF22090212BA030C11
:100130008B4202D31212090265D0030B8B4219D3F2
:1001400000E0090AC30B8B4201D3CB03C01A524112
:10015000830B8B4201D38B03C01A5241430B8B425A
:1001600001D34B03C01A5241030B8B4201D30B0343
:10017000C01A5241C30A8B4201D3CB02C01A52416A
:10018000830A8B4201D38B02C01A5241430A8B422D
:1001900001D34B02C01A5241030A8B4201D30B0216
:1001A000C01A5241CDD2C3098B4201D3CB01C01A30
:1001B000524183098B4201D38B01C01A524143093A
:1001C0008B4201D34B01C01A524103098B4201D328
:1001D0000B01C01A5241C3088B4201D3CB00C01A95
:1001E000524183088B4201D38B00C01A524143080D
:1001F0008B4201D34B00C01A5241411A00D2014632
:10020000524110467047FFE701B5002000F0F0F8BA
:1002100002BDC0460029F7D076E7704703460B437E
:100220007FD4002243088B4274D303098B425FD3EF
:10023000030A8B4244D3030B8B4228D3030C8B421B
:100240000DD3FF22090212BA030C8B4202D3121201
:10025000090265D0030B8B4219D300E0090AC30BD6
:100260008B4201D3CB03C01A5241830B8B4201D383
:100270008B03C01A5241430B8B4201D34B03C01A6C
:100280005241030B8B4201D30B03C01A5241C30AE4
:100290008B4201D3CB02C01A5241830A8B4201D355
:1002A0008B02C01A5241430A8B4201D34B02C01A3F
:1002B0005241030A8B4201D30B02C01A5241CDD2E4
:1002C000C3098B4201D3CB01C01A524183098B422F
:1002D00001D38B01C01A524143098B4201D34B0118
:1002E000C01A524103098B4201D30B01C01A52417B
:1002F000C3088B4201D3CB00C01A524183088B4202
:1003000001D38B00C01A524143088B4201D34B00EA
:10031000C01A5241411A00D201465241104670475C
:100320005DE0CA0F00D04942031000D34042534061
:1003300000229C4603098B422DD3030A8B4212D321
:10034000FC22890112BA030A8B420CD38901921153
:100350008B4208D3890192118B4204D389013AD090
:10036000921100E08909C3098B4201D3CB01C01A65
:10037000524183098B4201D38B01C01A5241430978
:100380008B4201D34B01C01A524103098B4201D366
:100390000B01C01A5241C3088B4201D3CB00C01AD3
:1003A000524183088B4201D38B00C01A5241D9D2EB
:1003B00043088B4201D34B00C01A5241411A00D26C
:1003C0000146634652415B10104601D34042002B68
:1003D00000D54942704763465B1000D3404201B5E7
:1003E000002000F005F802BD0029F8D016E770479C
:1003F0007047C0461C2101231B04984201D3000C06
:1004000010391B0A984201D3000A08391B09984287
:1004100001D30009043902A2105C40187047C0469D
:1004200004030202010101010000000000000000BD
:10043000002B11D1002A0FD1002900D1002802D0B1
:100440000021C943081C07B4024802A140180290C9
:1004500003BDC0469DFFFFFF03B4684601B5029887
:1004600000F006F8019B9E4602B00CBC7047C046E7
:10047000F0B557464E464546DE46E0B504000D0051
:100480009246994683B08B4230D82DD0494650468B
:1004900000F0BAF829000600200000F0B5F8331A81
:1004A0009846203B9B4633D45A4653469340424697
:1004B0001F00534693401E00AF423AD8AF4200D1CE
:1004C00078E05B46A41BBD41002B00DA75E00022FA
:1004D00000230092019301235A4693400193012384
:1004E00042469340009328E08242CFD90022002365
:1004F000009201930C9B002B01D01C605D60009862
:10050000019903B0F0BCBB46B246A946A046F0BD77
:10051000424620239B1A5246DA40414613004A467F
:100520008A40170042461F43534693401E00AF4285
:10053000C4D900220023009201934346002BD9D056
:10054000FB0772081A4346467B080EE0AB4201D116
:10055000A2420CD8A41A9D41012024196D4100210A
:10056000013E24184D41002E06D0AB42EED9013E8B
:1005700024196D41002EF8D1009801995B460019AD
:100580006941002B24DB2B005A464446D3402A0005
:10059000E2401C005B461500002B2ADB26009E4033
:1005A000330026004746BE403200801A9941009031
:1005B00001919FE7A342BCD883E742462023002154
:1005C0009B1A0022009101920122DA40019286E7F3
:1005D000424620239B1A2A0046469A402300F340B5
:1005E000444613432A00E2401C005B461500002BE2
:1005F000D4DA42462F002023260097409B1ADE4083
:100600003B003343CDE7C04610B5002903D1FFF7C7
:10061000F1FE203002E0081CFFF7ECFE10BDC046E2
:1006200080B582B000AF78603960C046BD4602B088
:1006300080BD000080B500AF00F072FD00F024F82E
:1006400000F022FA00F0A8F800F0EEF800F030F91F
:1006500000F08EF900F0CAF90CF03CFB00F068F9EC
:100660000AF0BEF8054A064B002118000AF000F90E
:100670000200044B1A600AF0D5F8FEE734DA0008ED
:10068000C50B0008FC17012090B5A7B000AF5C2493
:100690003B1918003C231A0000210DF0AAF84C2346
:1006A000FB18180010231A0000210DF0A2F83B00DF
:1006B00018004C231A0000210DF09BF880239B00AA
:1006C000180003F09DFD3B192A221A603B19802275
:1006D0005200DA603B198022D203DA6121007B18D4
:1006E00000221A617B1840225A617B1801229A610C
:1006F0007B1802221A627B1802225A627B1800229F
:100700009A627B180822DA627B18802292021A63AE
:100710007B18802292045A637B18802292059A6388
:100720007B18180003F0B8FD031E01D000F064FA36
:100730004C217B1807221A607B1802225A607B1812
:1007400000229A607B180022DA607B1802211800D0
:1007500004F008F9031E01D000F04EFA3B000D4AE8
:100760001A603B0000225A603B0000229A613B0065
:1007700000225A643B0000229A643B00180004F0F7
:10078000C5FA031E01D000F037FAC046BD4627B0B7
:1007900090BDC0462100000380B500AF204B214A28
:1007A0001A601F4B00225A601D4B00229A601C4B9E
:1007B0000022DA601A4B00221A74194B00225A7474
:1007C000174B00229A74164B01225A61144B0122D6
:1007D0009A61134B0222DA61114B02221A62104B0A
:1007E00001225A620E4B01229A620D4B0122DA62FB
:1007F0000B4B01221A630A4B00225A63084B00225A
:100800009A63074B0022DA63054B180000F05CFE88
:10081000031E01D000F0F0F9C046BD4680BDC046C1
:10082000EC1801200064004080B500AF1E4B1F4A49
:100830001A601D4B00229A601B4B0022DA601A4B93
:1008400000221A74184B00225A74174B00229A7413
:10085000154B01225A61144B01229A61124B02225C
:10086000DA61114B02221A620F4B01225A620E4BBF
:1008700001229A620C4B0122DA620B4B01221A63AD
:10088000094B00225A63084B00229A63064B002250
:10089000DA63054B180000F017FE031E01D000F0CC
:1008A000ABF9C046BD4680BDB419012000680040C8
:1008B00080B500AF1B4B1C4A1A601A4B1B4A5A608A
:1008C000184B00229A60174B0122DA60154B002268
:1008D0001A61144B00225A61124B00229A61114B8B
:1008E0000022DA610F4B00221A620E4B180001F051
:1008F00047F9031E01D000F07FF90A4B00211800D0
:1009000001F0D4FF031E01D000F076F9054B002161
:10091000180002F017F8031E01D000F06DF9C04670
:10092000BD4680BD0018012000540040BC7D701001
:1009300080B500AF0B4B0C4A1A600A4B02225A607A
:10094000084B0A4ADA60074B084A9A60054B1800C0
:1009500002F044F8031E01D000F04EF9C046BD4637
:1009600080BDC0464C18012000300040FF0F000041
:1009700080B500AF1B4B1C4A1A601A4B82225200F2
:100980005A60184B00229A60164BE022D200DA60BF
:10099000144B00221A61134B00225A61114B802222
:1009A000D2029A610F4B0022DA610E4B00221A62CA
:1009B0000C4B00225A620B4B00229A62094B072211
:1009C000DA62084B00221A63064B08225A63054B71
:1009D000180004F0D7FB031E01D000F00DF9C0464B
:1009E000BD4680BD501901200030014080B500AFE8
:1009F000234B244A1A60224BE12252025A60204BB8
:100A000000229A601E4B0022DA601D4B00221A6100
:100A10001B4B0C225A611A4B00229A61184B002280
:100A2000DA61174B00221A62154B00225A62144BEE
:100A300000229A62124B180004F012FF031E01D02C
:100A400000F0DAF80E4B0021180005F06FFF031ECE
:100A500001D000F0D1F80A4B0021180005F0A6FFE4
:100A6000031E01D000F0C8F8054B180005F024FF64
:100A7000031E01D000F0C0F8C046BD4680BDC04690
:100A80005C1801200038014090B58BB000AF1424F1
:100A90003B19180014231A0000210CF0AAFE454B44
:100AA0005A6B444B20210A435A63424B5B6B202212
:100AB00013403B613B693F4B5A6B3E4B04210A4359
:100AC0005A633C4B5B6B04221340FB60FB68394B61
:100AD0005A6B384B01210A435A63364B5B6B012238
:100AE0001340BB60BB68334B5A6B324B08210A433F
:100AF0005A63304B5B6B082213407B607B682D4B45
:100B00005A6B2C4B02210A435A632A4B5B6B02221D
:100B100013403B603B6880239B002748002219005C
:100B200001F010F8254B00227F21180001F00AF88F
:100B3000234B00223821180001F004F83B198022D1
:100B400092001A603B1901225A603B1900229A60F8
:100B50003B190022DA603B19174A1900100000F017
:100B600085FE3B197F221A603B1901225A603B190E
:100B700000229A603B190022DA603B190F4A1900E3
:100B8000100000F073FE21007B1838221A607B18D9
:100B900001225A607B1800229A607B180022DA60DA
:100BA0007B18074A1900100000F060FEC046BD46E1
:100BB0000BB090BD0010024000080050000C005027
:100BC0000004005080B582B000AF7860012009F0C9
:100BD000E6FEFBE780B582B000AF78607B681B68FB
:100BE000044A934201D100F0BBFAC046BD4602B0B0
:100BF00080BDC0460010004080B500AF72B6C04650
:100C0000FEE7000080B582B000AF154B1A6C144BA4
:100C100001210A431A64124B1B6C012213407B60B2
:100C20007B680F4BDA6B0E4B802149050A43DA6370
:100C30000B4BDA6B80235B0513403B603B68022360
:100C40005B4200220321180000F044FBC023DB00BC
:100C5000180000F0A1FAC046BD4602B080BDC046F3
:100C60000010024080B58CB000AF78601C23FB18E8
:100C7000180014231A0000210CF0BBFD7B681B68D0
:100C80003F4A934239D13F4B1B685A1C3D4B1A6077
:100C90003C4B1B68012B0DD13B4BDA6B3A4B80214F
:100CA00049010A43DA63384BDA6B80235B01134056
:100CB000BB61BB69344B5A6B334B04210A435A6303
:100CC000314B5B6B042213407B617B691C217B18D9
:100CD00030221A607B1802225A607B1800229A6028
:100CE0007B180022DA607B1803221A617B18274ADE
:100CF0001900100000F0BAFD3DE07B681B68244A33
:100D0000934238D11F4B1B685A1C1E4B1A601D4B57
:100D10001B68012B0DD11C4BDA6B1B4B8021490149
:100D20000A43DA63184BDA6B80235B0113403B61A3
:100D30003B69154B5A6B144B04210A435A63124BFF
:100D40005B6B04221340FB60FB681C217B180C22A8
:100D50001A607B1802225A607B1800229A607B1866
:100D60000022DA607B1803221A617B18074A1900F7
:100D7000100000F07BFDC046BD460CB080BDC046F3
:100D800000640040080200200010024000080050EB
:100D90000068004090B58BB000AF786014243B1918
:100DA000180014231A0000210CF023FD7B681B6837
:100DB000204A934239D1204B5A6B1F4B01210A43E1
:100DC0005A631D4B5B6B012213403B613B693B192E
:100DD000C022D2001A6021007B1812225A607B18B0
:100DE00001229A607B180022DA607B1806221A61C1
:100DF0007A18A023DB051100180000F037FD0E4B18
:100E0000DA6B0D4B802189030A43DA630A4BDA6BF4
:100E100080239B031340FB60FB6800220321172003
:100E200000F058FA172000F06AFAC046BD460BB031
:100E300090BDC046005400400010024090B58BB0F9
:100E400000AF786014243B19180014231A00002105
:100E50000CF0CFFC7B681B681B4A934230D11B4BC4
:100E60001A6C1A4B802149010A431A64174B1A6CF9
:100E700080235B0113403B613B69144B5A6B134B5E
:100E800001210A435A63114B5B6B01221340FB6043
:100E9000FB6821007B18F0221A607B1802225A603E
:100EA0007B1800229A607B180022DA607B180022EF
:100EB0001A617A18A023DB051100180000F0D6FC97
:100EC000C046BD460BB090BD00300140001002404E
:100ED00090B58BB000AF786014243B191800142330
:100EE0001A0000210CF085FC7B681B681F4A9342A6
:100EF00037D11F4B1A6C1E4B8021C9010A431A645B
:100F00001B4B1A6C8023DB0113403B613B69184B80
:100F10005A6B174B02210A435A63154B5B6B022233
:100F20001340FB60FB6821007B18C0221A607B180D
:100F300002225A607B1800229A607B180022DA6035
:100F40007B1800221A617B180A4A1900100000F071
:100F50008DFC002203211B2000F0BCF91B2000F0B7
:100F6000CEF9C046BD460BB090BDC046003801402A
:100F7000001002400004005080B58AB000AF7860D5
:100F800000237B6200233B627B6800221900112052
:100F900000F0A0F9112000F0B2F9204BDA6B1F4BE2
:100FA00010210A43DA631D4BDB6B10221340BB6038
:100FB000BB680C23FA181023FB181100180003F06B
:100FC0007BFE03F063FE03007B627B6A144918001A
:100FD000FFF79AF80300013B3B62124B124A1A607A
:100FE000104B124ADA600F4B3A6A5A600D4B0022DE
:100FF0001A610C4B00229A600A4B180004F07AF92F
:10100000031E05D1074B180004F0D4F9030000E0DB
:1010100001231800BD460AB080BDC0460010024042
:1010200040420F00181A012000100040E7030000A2
:1010300080B500AFFEE780B500AFFEE780B500AF3A
:10104000034B180001F050FEC046BD4680BDC046AF
:10105000782F012080B500AF034B180004F00CFA84
:10106000C046BD4680BDC046181A012080B500AFFD
:10107000094B1B689A69E023DB00134004D0064B40
:10108000180000F02DFE03E0034B180000F00EFEE8
:10109000C046BD4680BDC0460018012080B500AFE7
:1010A000034B180004F032FCC046BD4680BDC0466C
:1010B0005C18012080B500AF034B802212059A60B6
:1010C000C046BD4680BDC04600ED00E00D488546E7
:1010D000FFF7F0FF0C480D490D4A002302E0D458F9
:1010E000C4500433C4188C42F9D30A4A0A4C002372
:1010F00001E013600432A242FBD30CF04BFBFFF77C
:1011000099FAFEE70040022000000020EC010020D8
:1011100078DC0008EC01002088320120FEE70000A6
:1011200080B582B000AFFB1D00221A700B4B1A680D
:101130000A4B802149000A431A600020FFF71CFF78
:10114000031E03D0FB1D01221A7001E0FFF75AFDB8
:10115000FB1D1B781800BD4602B080BD0020024078
:1011600080B500AF054B1B781A00054B1B68D218E1
:10117000034B1A60C046BD4680BDC0460800002033
:10118000641A012080B500AF024B1B681800BD46F1
:1011900080BDC046641A012080B582B000AF78607F
:1011A000064B1B68064A13401900044B7A680A4331
:1011B0001A60C046BD4602B080BDC0460000014076
:1011C000FFF9FFFF80B582B000AF0200FB1D1A706F
:1011D000FB1D1B787F2B09D8FB1D1B781A001F23D2
:1011E0001A40044B012191400A001A60C046BD46D6
:1011F00002B080BD00E100E090B583B000AF020016
:101200003960FB1D1A70FB1D1B787F2B28D82F4AD5
:10121000FB1D1B785BB29B08C0339B009B58FA1DDB
:101220001278110003220A40D200FF2191400A00E7
:10123000D2431A4011003B689B01FF221A40FB1D5C
:101240001B78180003230340DB009A401F48FB1D56
:101250001B785BB29B080A43C0339B001A5031E0F5
:101260001B4AFB1D1B7819000F230B40083B9B08F2
:1012700006339B00D31804331B68FA1D1278110043
:1012800003220A40D200FF2191400A00D2431A40B3
:1012900011003B689B01FF221A40FB1D1B781800C0
:1012A00003230340DB009A400948FB1D1B781C0008
:1012B0000F232340083B9B080A4306339B00C318B7
:1012C00004331A60C046BD4603B090BD00E100E0A3
:1012D00000ED00E080B584B000AFB9607A600F2106
:1012E0007B18021C1A70BA687B181B785BB211005D
:1012F0001800FFF781FFC046BD4604B080BD80B531
:1013000082B000AF0200FB1D1A70FB1D1B785BB2A0
:101310001800FFF757FFC046BD4602B080BD000071
:1013200080B582B000AF78607B68002B01D10123CB
:101330004FE07B6825229B5CDBB2022B08D07B68E8
:101340000422DA637B68242200219954012340E0BF
:101350007B681B681A687B681B680E218A431A60C9
:101360007B689B6C1A687B689B6C1C490A401A60FE
:101370007B681B681A687B681B6801218A431A60B6
:101380007B685B6C1C221A407B681B6C01219140BE
:101390000A005A607B68DB6C7A68126D5A607B6861
:1013A0005B6D002B0CD07B685B6D1A687B685B6D96
:1013B0000A490A401A607B689B6D7A68D26D5A6050
:1013C0007B682522012199547B68242200219954AD
:1013D00000231800BD4602B080BDC046FFFEFFFFDF
:1013E00080B584B000AF78600F217B1800221A709E
:1013F0007B6825229B5CDBB2022B06D07B68042233
:10140000DA637B1801221A7048E07B681B681A684F
:101410007B681B680E218A431A607B681B681A6808
:101420007B681B6801218A431A607B689B6C1A6881
:101430007B689B6C1D490A401A607B685B6C1C22B0
:101440001A407B681B6C012191400A005A607B683E
:10145000DB6C7A68126D5A607B685B6D002B0CD078
:101460007B685B6D1A687B685B6D10490A401A6087
:101470007B689B6D7A68D26D5A607B68252201215A
:1014800099547B682422002199547B689B6B002B24
:1014900004D07B689B6B7A68100098470F23FB1879
:1014A0001B781800BD4604B080BDC046FFFEFFFF9C
:1014B00080B582B000AF78607B6825229B5CDBB290
:1014C0001800BD4602B080BD80B584B000AF786022
:1014D0007B68002B01D101234EE17B685C229B5C81
:1014E000DBB2002B07D17B685D22002199547B6819
:1014F0001800FFF7B7FB7B681B689A697B681B685D
:1015000010218A439A61FFF73DFE0300FB6012E061
:10151000FFF738FE0200FB68D31A0A2B0BD97B6851
:101520001B6E01221A437B681A667B685C220321CA
:101530009954012320E17B681B689B6908221340B2
:10154000082BE5D07B681B689A697B681B680121C2
:101550000A439A61FFF716FE0300FB6012E0FFF7F3
:1015600011FE0200FB68D31A0A2B0BD97B681B6E95
:1015700001221A437B681A667B685C220321995416
:101580000123F9E07B681B689B6901221340E6D0C8
:101590007B681B689A697B681B6802210A439A6111
:1015A0007B681B68764A934203D1764A7B685B6806
:1015B00013607B681B7C012B08D17B681B689A69D0
:1015C0007B681B6840218A439A6107E07B681B683F
:1015D0009A697B681B6840210A439A617B685B7C3F
:1015E000012B09D17B681B689A697B681B68802185
:1015F000C9010A439A6107E07B681B689A697B68A6
:101600001B6861490A409A617B689B7C012B08D169
:101610007B681B689A697B681B685C490A409A6111
:1016200008E07B681B689A697B681B688021490118
:101630000A439A617B681B689B69554A13401900ED
:101640007B689A687B681B680A439A617B681B68A1
:101650009A697B681B68A4218A439A617B681B682E
:101660001A697B681B6810218A431A617B68DB68F2
:10167000012B08D17B681B689A697B681B68042171
:101680000A439A612CE07B68DB68002B28D07B68DA
:10169000DB68022B1CD07B681B689A697B681B681F
:1016A00080210A439A617B681B681A697B681B6802
:1016B00010210A431A617B68DB68032B10D17B6819
:1016C0001B689A697B681B6820210A439A6107E0BE
:1016D0007B681B689A697B681B6820210A439A61B2
:1016E0007B689B69013B5A067B68DB69013B1B02F7
:1016F0001A437B681B6A013B1A4311007B685B69D4
:10170000013B1A047B681B680A43DA617B689A68AC
:10171000C0239B009A4215D17B689B6A5A1E7B6846
:10172000DB6A013B1B021A437B681B6B013B1B01FD
:101730001A4311007B685B6A013B1A047B681B68D3
:101740000A43DA607B681B68C02299587B68DA6BB1
:101750007B681B680A43C0215A507B68180000F060
:1017600019F87B6800229A657B6800221A667B68FC
:101770005C220121995400231800BD4604B080BDAD
:101780000064004000650040FFBFFFFFFFEFFFFF68
:10179000FFFCFFFF80B584B000AF78602F4BBB60CB
:1017A0007B681B682E4A934205D1BB68D422920005
:1017B00094466344BB607B68BA681A647B681B68A4
:1017C00080229B58274A134019007B685B6B1A04E0
:1017D0007B681B680A4380215A50BB6870331A002B
:1017E0007B685A647B681B6880229B581E4A1340A2
:1017F00019007B689B6B1A067B681B680A43802173
:101800005A50BB68B0331A007B689A64BB6889334E
:10181000FF331A007B68DA64BB68982292009A183A
:101820007B681A65BB689E2292009A187B685A658D
:10183000BB68FB6005E0FB6800221A60FB680433AC
:10184000FB60BB68D422920094466344FA689A42D3
:10185000F1D3C046C046BD4604B080BD00B40040D0
:1018600000680040FFFFE0FFFFFFFFF080B586B09B
:1018700000AF7860396000237B614DE13B681B68F5
:1018800001217A6991400A001340FB60FB68002B3C
:1018900000D13EE13B685B68012B0BD03B685B6885
:1018A000022B07D03B685B68112B03D03B685B6859
:1018B000122B30D17B689B683B617B695B00032204
:1018C0009A401300DA433B6913403B613B68DA6896
:1018D0007B695B009A4013003A6913433B617B6864
:1018E0003A699A607B685B683B6101227B699A4038
:1018F0001300DA433B6913403B613B685B681B099B
:1019000001221A407B699A4013003A6913433B61F4
:101910007B683A695A607B68DB683B617B695B0086
:1019200003229A401300DA433B6913403B613B6852
:101930009A687B695B009A4013003A6913433B61E4
:101940007B683A69DA603B685B68022B03D03B68CE
:101950005B68122B23D17B69DA087B68083292001E
:10196000D3583B617B69072213409B000F229A40AA
:101970001300DA433B6913403B613B681A697B699A
:1019800007210B409B009A4013003A6913433B61C7
:101990007B69DA087B68083292003969D1507B682C
:1019A0001B683B617B695B0003229A401300DA43AA
:1019B0003B6913403B613B685B6803221A407B69CB
:1019C0005B009A4013003A6913433B617B683A69B4
:1019D0001A603B685A6880235B05134000D198E089
:1019E000534A7B699B0818339B009B583B617B697A
:1019F00003221340DB000F229A401300DA433B69B5
:101A000013403B617A68A023DB059A4219D07B68BA
:101A1000484A934213D07B68474A93420DD07B6873
:101A2000464A934207D07B68454A934201D104233A
:101A300008E0052306E0032304E0022302E001237B
:101A400000E000237A6903210A40D20093403A69FA
:101A500013433B6136497B699B0818339B003A6905
:101A60005A50334A8023D3583B61FB68DA433B69C1
:101A700013403B613B685A6880235B02134003D0EC
:101A80003A69FB6813433B61294980223B698B50CB
:101A9000274A8423D3583B61FB68DA433B691340F0
:101AA0003B613B685A6880239B02134003D03A692C
:101AB000FB6813433B611E4984223B698B501C4BDE
:101AC0001B683B61FB68DA433B6913403B613B6841
:101AD0005A6880235B03134003D03A69FB681343C1
:101AE0003B61134B3A691A60114B5B683B61FB68C1
:101AF000DA433B6913403B613B685A6880239B0390
:101B0000134003D03A69FB6813433B61084B3A69C1
:101B10005A607B6901337B613B681A687B69DA40F4
:101B2000131E00D0AAE6C046C046BD4606B080BD22
:101B3000001802400004005000080050000C005043
:101B40000010005080B582B000AF7860080011002E
:101B5000BB1C021C1A807B1C0A1C1A707B1C1B7885
:101B6000002B04D0BB1C1A887B689A6103E0BB1C65
:101B70001A887B689A62C046BD4602B080BD0000EC
:101B800080B582B000AF78607B68002B01D1012363
:101B900082E07B6841229B5CDBB2002B07D17B6833
:101BA0004022002199547B681800FFF7F3F87B6806
:101BB0004122242199547B681B681A687B681B6842
:101BC00001218A431A607B685A687B681B68344924
:101BD0000A401A617B681B689A687B681B683149F8
:101BE0000A409A607B68DB68012B08D17B689A68A1
:101BF0007B681B68802109020A439A6007E07B68C2
:101C00009A687B681B68842109020A439A607B6892
:101C1000DB68022B04D17B681B68802212015A60AA
:101C20007B681B685A687B681B681F490A435A60B7
:101C30007B681B68DA687B681B681A490A40DA60AF
:101C40007B681A697B685B691A4311007B689B6932
:101C50001A027B681B680A43DA607B68D9697B6873
:101C60001A6A7B681B680A431A607B681B681A68DB
:101C70007B681B6801210A431A607B6800225A6452
:101C80007B684122202199547B6800221A637B687B
:101C900042220021995400231800BD4602B080BDA5
:101CA000FFFFFFF0FF7FFFFF0080000280B584B0E0
:101CB00000AF78607B681B689B69FB607B681B6872
:101CC0001B68BB607B685B6B002B05D07B685B6B24
:101CD000BA68F96878689847C046BD4604B080BDC8
:101CE00080B586B000AF78607B681B689B697B61BC
:101CF0007B681B681B683B617B691B0A1A00012318
:101D0000134010D03B69DB091A00012313400AD0AD
:101D10007B685B6C01221A437B685A647B681B6892
:101D200080225200DA617B699B0A1A00012313406A
:101D300010D03B69DB091A00012313400AD07B68ED
:101D40005B6C08221A437B685A647B681B6880229C
:101D5000D200DA617B695B0A1A000123134010D0BC
:101D60003B69DB091A00012313400AD07B685B6CD6
:101D700002221A437B685A647B681B6880229200A7
:101D8000DA617B685B6CFB60FB680B22134005D05B
:101D9000FA687B681100180000F0D8FBC046BD4609
:101DA00006B080BD80B582B000AF7860C046BD4649
:101DB00002B080BD80B582B000AF7860C046BD463D
:101DC00002B080BD80B582B000AF7860080011001D
:101DD000FB1C021C1A703B000A1C1A80C046BD4640
:101DE00002B080BD80B582B000AF7860C046BD460D
:101DF00002B080BD80B582B000AF7860C046BD46FD
:101E000002B080BD80B582B000AF7860C046BD46EC
:101E100002B080BD80B586B000AFF860B9607A606E
:101E2000FB68DB6A7B61BB683B61FB6840229B5CB3
:101E3000012B01D10223FAE0FB68402201219954D1
:101E40003B695B091A00012313400BD07B685B09D7
:101E50001A000123134005D03A69FB6811001800ED
:101E600000F0F6F93B691B091A000123134054D016
:101E70007B681B091A00012313404ED0FB685B8D61
:101E80009BB2002B2DD1FB6841229B5CDBB2282B3F
:101E90000BD17A6980239B049A4206D13A69FB6888
:101EA0001100180000F0F8FA36E0FB6841229B5C54
:101EB000DBB2292B10D17B695F4A93420CD0FB68BF
:101EC0001B681022DA61FB68180000F04AFCFB680E
:101ED000180000F057F91FE0FB681B681022DA6158
:101EE0009DE0FB681B681022DA61FB685B6C0422D2
:101EF0001A43FB685A647B69002B05D07A698023FA
:101F00005B049A4200D08AE0FB685A6CFB681100BF
:101F1000180000F01BFB82E081E03B699B081A007F
:101F20000123134031D07B689B081A000123134022
:101F30002BD0FB685B8D9BB2002B18D0FB681B6815
:101F40005A6AFB685B6AD2B21A70FB685B6A5A1CF9
:101F5000FB685A62FB681B8D013B9AB2FB681A85CD
:101F6000FB685B8D9BB2013B9AB2FB685A85FB68AC
:101F70005B8D9BB2002B54D17B692F4A934250D08A
:101F8000FB68180000F0FEF84BE03B69DB081A0024
:101F9000012313400CD07B68DB081A000123134097
:101FA00006D03A69FB681100180000F047F839E0E4
:101FB0003B695B081A000123134033D07B685B0840
:101FC0001A00012313402DD0FB685B8D9BB2002BC0
:101FD00018D0FB685B6A1A78FB681B689A62FB681A
:101FE0005B6A5A1CFB685A62FB685B8D9BB2013BC3
:101FF0009AB2FB685A85FB681B8D013B9AB2FB685D
:102000001A850FE07A6980235B049A4202D07B69CB
:10201000002B07D1FB68180000F0B4F802E0C046BE
:1020200000E0C046FB6840220021995400231800BC
:10203000BD4606B080BDC0460000FFFFB0B584B00D
:1020400000AF786039607B6841229B5CDBB21A008C
:1020500028231340282B00D088E07B681B689B69ED
:102060001B0CDAB20F257B1901210A401A707B681C
:102070001B689B691B0C9AB20C203B18FE210A407E
:102080001A807B681B689B689AB20A243B199205E8
:10209000920D1A807B681B68DB689AB20823FB18D4
:1020A000FE210A401A807B68DB68022B48D12100A0
:1020B0007B181B88DB099AB23B181B8853409BB2E4
:1020C0001A000623134020D13B187A1812881A8070
:1020D0007B689B6C5A1C7B689A647B689B6C022BA8
:1020E0004CD17B6800229A647B681B680822DA6105
:1020F0007B684022002199543B181A887B19197873
:102100007B681800FFF75EFE38E00C243B190822BC
:10211000BA1812881A8080231A027B6811001800EE
:1021200000F060FB7B684022002199543B191A881B
:102130000F23FB1819787B681800FFF743FE1DE09A
:1021400080231A027B681100180000F04BFB7B68AB
:102150004022002199540C23FB181A880F23FB18E6
:1021600019787B681800FFF72DFE07E07B681B6875
:102170000822DA617B68402200219954C046BD469E
:1021800004B0B0BD80B584B000AF78607B681B68D8
:102190001B68FB607B68422200219954FB689B0B03
:1021A0001A000123134008D07B681B681A687B68FB
:1021B0001B6825490A401A600DE0FB68DB0B1A001A
:1021C0000123134007D07B681B681A687B681B6873
:1021D0001E490A401A607B6841229B5CDBB2292BB6
:1021E00014D17B684122282199547B6821221A63EB
:1021F0007B680121180000F0F5FA7B68402200217D
:1022000099547B681800FFF7CDFD19E07B684122E7
:102210009B5CDBB22A2B13D17B6841222821995485
:102220007B6822221A637B680221180000F0DAFA28
:102230007B684022002199547B681800FFF7BAFDA3
:10224000C046BD4604B080BDFFBFFFFFFF7FFFFF5C
:1022500080B586B000AF786039607B681B681B680A
:102260003B613B687B610F203B187A684121525CDF
:102270001A707B681B682022DA613B181B78212BBF
:1022800003D03B181B78292B09D17D4A7B681100AC
:10229000180000F0A7FA7B6821221A6311E00F22D0
:1022A000BB181B78222B03D0BB181B782A2B08D114
:1022B000744A7B681100180000F094FA7B682222AF
:1022C0001A637B681B685A687B681B688021090257
:1022D0000A435A607B681B685A687B681B686A49B6
:1022E0000A405A607B68180000F03BFA3B699B0B80
:1022F0001A000123134013D07B681B681A687B689F
:102300001B6862490A401A607B689B6B002B20D0D7
:102310007B689B6B1B685B689AB27B685A8518E088
:102320003B69DB0B1A000123134012D07B681B684A
:102330001A687B681B6856490A401A607B68DB6B29
:10234000002B06D07B68DB6B1B685B689AB27B68EE
:102350005A857B699B081A000123134020D07B69B2
:10236000042293437B617B681B685A6A7B685B6AC3
:10237000D2B21A707B685B6A5A1C7B685A627B68AF
:102380001B8D002B0CD07B681B8D013B9AB27B68A8
:102390001A857B685B8D9BB2013B9AB27B685A853C
:1023A0007B685B8D9BB2002B05D07B685B6C042245
:1023B0001A437B685A647B684222002199547B68E7
:1023C00000225A637B685B6C002B13D07B685A6CCD
:1023D0007B681100180000F0B9F87B6841229B5C13
:1023E000DBB2282B47D17A697B681100180000F016
:1023F00053F840E07B68DB6A264A934216D07B683C
:102400001800FFF7BFFE7B68224ADA627B68412230
:10241000202199547B6800221A637B6840220021A6
:1024200099547B681800FFF7DDFC24E07B684122AB
:102430009B5CDBB2222B0FD17B6841222021995477
:102440007B6800221A637B684022002199547B68D4
:102450001800FFF7AFFC0EE07B6841222021995461
:102460007B6800221A637B684022002199547B68B4
:102470001800FFF797FCC046BD4606B080BDC046B9
:10248000018000000280000000E800FEFFBFFFFFA7
:10249000FF7FFFFF0000FFFF80B582B000AF7860D4
:1024A00039607B68274ADA627B6800221A637B689E
:1024B0004122202199547B684222002199547B6853
:1024C00000225A633B689B081A000123134022D064
:1024D0007B681B685A6A7B685B6AD2B21A707B6839
:1024E0005B6A5A1C7B685A627B681B8D002B12D07A
:1024F0007B681B8D013B9AB27B681A857B685B8D7C
:102500009BB2013B9AB27B685A857B685B6C042264
:102510001A437B685A640C4A7B681100180000F06B
:1025200061F97B681B681022DA617B684022002118
:1025300099547B681800FFF755FCC046BD4602B0B1
:1025400080BDC0460000FFFF0380000080B584B05E
:1025500000AF786039600F203B187A684121525CE7
:102560001A707B684222002199547B68624ADA62C1
:102570007B6800225A857B685A6C3B681A437B68EB
:102580005A643B181B78282B07D03B181B78292B43
:1025900003D03B181B782A2B0CD17B680321180031
:1025A00000F020F97B684122282199547B68534A26
:1025B0005A6312E0524A7B681100180000F012F9C9
:1025C0007B6841229B5CDBB2602B03D07B6841229D
:1025D000202199547B6800225A637B681B6BBB6087
:1025E0007B689B6B002B3BD0BB68112B02D0BB6878
:1025F000212B35D17B681B681A688023DB011A40C8
:102600008023DB019A4207D17B681B681A687B68CC
:102610001B683C490A401A607B689B6B1800FEF7F8
:1026200047FF0300012B16D07B689B6B364A9A63E9
:102630007B684022002199547B689B6B1800FEF751
:10264000CFFE031E51D07B689B6B9A6B7B689B6BA4
:102650001800904749E07B68180000F059F844E002
:102660007B68DB6B002B3BD0BB68122B02D0BB68B6
:10267000222B35D17B681B681A6880231B021A4005
:1026800080231B029A4207D17B681B681A687B680B
:102690001B681E490A401A607B68DB6B1800FEF756
:1026A00007FF0300012B16D07B68DB6B164A9A6389
:1026B0007B684022002199547B68DB6B1800FEF791
:1026C0008FFE031E13D07B68DB6B9A6B7B68DB6B22
:1026D000180090470BE07B68180000F019F806E03E
:1026E0007B68180000F014F802E0C04600E0C04625
:1026F000C046BD4604B080BD0000FFFF151E0008A7
:1027000003800000FFBFFFFFA7270008FF7FFFFF38
:1027100080B582B000AF78607B6841229B5CDBB201
:10272000602B0FD17B684122202199547B680022C5
:102730001A637B684022002199547B681800FFF7D8
:1027400061FB0AE07B6800221A637B68402200215B
:1027500099547B681800FFF74DFBC046BD4602B098
:1027600080BD80B582B000AF78607B681B689B69D4
:1027700002221340022B03D17B681B6800229A625D
:102780007B681B689B6901221340012B07D07B6883
:102790001B689A697B681B6801210A439A61C046DD
:1027A000BD4602B080BD80B584B000AF78607B6864
:1027B0009B6AFB60FB689B6B002B03D0FB689B6BE9
:1027C00000229A63FB68DB6B002B03D0FB68DB6B9A
:1027D00000229A63FB681800FFF79AFFC046BD46C7
:1027E00004B080BD80B584B000AF78600A00BB1C27
:1027F0001A800023FB60BB1C1B880122134010D0F1
:10280000FB6842221343FB607B6841229B5CDBB286
:102810001A0028231340282B03D0FB68B02213434F
:10282000FB60BB1C1B880222134010D0FB684422B3
:102830001343FB607B6841229B5CDBB21A002823B8
:102840001340282B03D0FB68B0221343FB60BB1C52
:1028500000229B5E002B03DAFB68B8221343FB6067
:10286000BB1C1B88102B03D1FB6890221343FB6019
:10287000BB1C1B88202B03D1FB6820221343FB6069
:10288000BB1C1B88402B03D1FB6840221343FB6019
:102890007B681B681A68FB68D9437B681B680A4021
:1028A0001A60C046BD4604B080BD000080B582B04D
:1028B00000AF786039607B6841229B5CDBB2202BE3
:1028C00038D17B6840229B5C012B01D1022332E08E
:1028D0007B684022012199547B684122242199542C
:1028E0007B681B681A687B681B6801218A431A6031
:1028F0007B681B681A687B681B6811490A401A606C
:102900007B681B6819687B681B683A680A431A6011
:102910007B681B681A687B681B6801210A431A6080
:102920007B684122202199547B68402200219954E0
:10293000002300E002231800BD4602B080BDC0465F
:10294000FFEFFFFF80B584B000AF786039607B682F
:1029500041229B5CDBB2202B39D17B6840229B5CFF
:10296000012B01D1022333E07B68402201219954DD
:102970007B684122242199547B681B681A687B6814
:102980001B6801218A431A607B681B681B68FB6017
:10299000FB68114A1340FB603B681B02FA68134353
:1029A000FB607B681B68FA681A607B681B681A68A2
:1029B0007B681B6801210A431A607B684122202141
:1029C00099547B68402200219954002300E002239F
:1029D0001800BD4604B080BDFFF0FFFF80B584B095
:1029E00000AF78607B68002B01D1012336E07B6863
:1029F0001B681C4A1A607B681B681B4A1A607B684C
:102A00001B687A6852685A607B681B687A689268AB
:102A10009A60FEF7B7FB0300FB6008E0FEF7B2FB2D
:102A20000200FB68D31A302B01D9032316E07B6820
:102A30001B68DB68002BF1D17B681B681A697B6817
:102A4000DB689A4205D07B681B687A68D2681A6195
:102A500003E07B681B68054A1A6000231800BD4626
:102A600004B080BDCCCC000055550000AAAA0000DF
:102A7000F0B58FB00AAF78607B68002B01D10123DD
:102A800005E17B68844A9B5CDBB2002B08D17A6845
:102A9000AE239B000021D1547B6818000AF0DEFAB7
:102AA0007B687D4A032199547B681B68180004F0F9
:102AB0003DF80F23FB1800221A705BE00F243B192E
:102AC0001A787968392013009B009B18DB00CB181B
:102AD0001B1801221A703B191A78796838201300E4
:102AE0009B009B18DB00CB181B183A1912781A7040
:102AF00025003B191A787B191B789CB27968442011
:102B000013009B009B18DB00CB181B18221C1A809B
:102B10007B191A7879683B2013009B009B18DB0017
:102B2000CB181B1800221A707B191A7879681300C9
:102B30009B009B18DB00CB18483300221A607B19DE
:102B40001A78796813009B009B18DB00CB184C3374
:102B500000221A607B191A78796813009B009B1871
:102B6000DB00CB18503300221A607B191A787B19CE
:102B700001321A700F217B181A787B685B689A42C1
:102B80009CD37B1800221A7056E00F243B191A7848
:102B900078687A23FF33190013009B009B18DB0031
:102BA000C3185B1800221A703B191A787868BC2386
:102BB000590013009B009B18DB00C3185B183A19DF
:102BC00012781A703B191A7878687C23FF33190041
:102BD00013009B009B18DB00C3185B1800221A70BF
:102BE0003B191A787868C423590013009B009B187E
:102BF000DB00C3185B1800221A603B191A7878684A
:102C0000C623590013009B009B18DB00C3185B18F8
:102C100000221A603B191A787868C82359001300FB
:102C20009B009B18DB00C3185B1800221A603B193D
:102C30001A783B1901321A700F23FB181A787B6837
:102C40005B689A42A1D37B681C6878686B461A005F
:102C50000300103362CB62C262CB62C262CB62C23B
:102C600041688268C368200003F092FF7B683422C9
:102C7000002199547B68084A012199547B681B6A9A
:102C8000012B03D17B68180001F098FA002318008B
:102C9000BD4605B0F0BDC046B902000080B582B0A7
:102CA00000AF78607A68AE239B00D35C012B01D122
:102CB000022314E07A68AE239B000121D1547B6883
:102CC0001B68180003F01EFF7B681B68180005F0E6
:102CD000E2FD7A68AE239B000021D1540023180046
:102CE000BD4602B080BD000080B582B000AF786004
:102CF0007B681B68180005F0DEFD020080231B02C4
:102D00001A4080231B029A4203D17B68180000F00E
:102D100083FB7B681B68180005F0CDFD0200802353
:102D2000DB001A408023DB009A4210D17B681B68CD
:102D30005A6C7B681B6886490A405A647B68180095
:102D40000AF017FA7B680021180000F011F97B687F
:102D50001B68180005F0AFFD02008023DB011A405C
:102D60008023DB019A4207D17B681B685A6C7B6821
:102D70001B6878490A405A647B681B68180005F094
:102D80009AFD020080239B011A4080239B019A42F6
:102D900007D17B681B685A6C7B681B686E490A40C8
:102DA0005A647B681B68180005F085FD02008023CB
:102DB0005B011A4080235B019A422BD17B681B6820
:102DC0001A6C7B681B6804218A431A647B681B6841
:102DD0001A6C7B681B6808218A431A647A68BC23D2
:102DE0009B00D35C012B09D17A68BC239B00002196
:102DF000D1547B68002118000AF040FC7B68180061
:102E00000AF0FCF97B681B685A6C7B681B685349A5
:102E10000A405A647B681B68180005F04CFD0200EC
:102E200080231B011A4080231B019A421BD17B681F
:102E30001B681A6C7B681B6808210A431A647B684C
:102E40001B685A6C7B681B6845490A405A647B685A
:102E50001B681A6C7B681B6804210A431A647B6830
:102E600018000AF0AFF97B681B68180005F023FD15
:102E7000030080221340802B37D17B681B685A6C7B
:102E80007B681B6837490A405A647A68BC239B00F8
:102E9000D35C002B25D17B681B681A6C7B681B6890
:102EA00004210A431A647B681B681A6C7B681B68E0
:102EB00008210A431A647A68BC239B000121D1547B
:102EC0007B681B685B6D9B083C22134019007A6885
:102ED000BD239B00D1507B68012118000AF0CEFB76
:102EE00003E07B6818000AF06DF97B681B68180026
:102EF00005F0E1FC020080239B001A4080239B0028
:102F00009A420BD17B681B685A6C7B681B68164918
:102F10000A405A647B6818000AF01CF97B681B6839
:102F2000180005F0C8FC020080235B001A408023D3
:102F30005B009A4207D17B681B685A6C7B681B68F0
:102F40000A490A405A64C046BD4602B080BDC04628
:102F5000FFFB0000FFBF0000FFDF0000FFEF0000ED
:102F6000FFF700007FFF0000FFFD0000FFFE0000F4
:102F700080B582B000AF78600A00FB1C1A707A68D6
:102F8000AE239B00D35C012B01D1022317E07A68AA
:102F9000AE239B000121D1547B68FA1C34211278A6
:102FA0005A547B681A68FB1C1B781900100005F046
:102FB0005FFC7A68AE239B000021D15400231800E7
:102FC000BD4602B080BD90B585B000AF78600C0002
:102FD00010001900FB1C221C1A703B00021C1A80F6
:102FE000BB1C0A1C1A700B23FB1800221A70FB1C56
:102FF0001B785BB2002B0FDAFB1C1B7807221A40F0
:1030000013009B009B18DB0038337A68D318FB60F1
:10301000FB6801225A700FE0FB1C1B7807221A4044
:1030200013009B009B18DB007933FF337A68D318B9
:10303000FB60FB6800225A70FB1C1B7807221340C0
:10304000DAB2FB681A703B001A88FB681A61FB68E9
:10305000BA1C1278DA70FB685B78002B04D0FB682E
:103060001B789AB2FB689A81BB1C1B78022B02D199
:10307000FB680022DA727A68AE239B00D35C012BD6
:1030800001D1022313E07A68AE239B000121D154C1
:103090007B681B68FA681100180003F0A7FD7A68C6
:1030A000AE239B000021D1540B23FB181B78180082
:1030B000BD4605B090BD80B584B000AF78600A0011
:1030C000FB1C1A70FB1C1B785BB2002B0FDAFB1C7D
:1030D0001B7807221A4013009B009B18DB00383333
:1030E0007A68D318FB60FB6801225A700FE0FB1C62
:1030F0001B7807221A4013009B009B18DB007933D2
:10310000FF337A68D318FB60FB6800225A70FB1CFF
:103110001B7807221340DAB2FB681A707A68AE2374
:103120009B00D35C012B01D1022311E07A68AE230E
:103130009B000121D1547B681B68FA6811001800BC
:1031400004F064F87A68AE239B000021D154002378
:103150001800BD4604B080BD80B586B000AFF860F1
:103160007A603B600B203B180A1C1A7001007B1828
:103170001B7807221A4013009B009B18DB00793351
:10318000FF33FA68D3187B617B697A685A617B697F
:103190003A689A617B690022DA617B6900225A7081
:1031A0007B181B7807221340DAB27B691A707B18F0
:1031B0001B780722134007D1FB681B687A6911004E
:1031C000180004F089F906E0FB681B687A691100B1
:1031D000180004F081F900231800BD4606B080BD38
:1031E00080B582B000AF78600A00FB1C1A70FB1C2F
:1031F0001B7807221A407868CA23590013009B00E5
:103200009B18DB00C3185B181B681800BD4602B092
:1032100080BD80B586B000AFF8607A603B600B205F
:103220003B180A1C1A703B181B7807221A4013001F
:103230009B009B18DB003833FA68D3187B617B69ED
:103240007A685A617B693A689A617B692422012114
:1032500099547B693A681A627B690022DA617B695A
:1032600001225A703B181B7807221340DAB27B699F
:103270001A703B181B780722134007D1FB681B68A4
:103280007A691100180004F027F906E0FB681B6852
:103290007A691100180004F01FF900231800BD46D8
:1032A00006B080BD80B584B000AF78600A00FB1C1A
:1032B0001A70FB1C1B7807221A407B685B689A42D5
:1032C00001D9012346E0FB1C1B785BB2002B0FDA0F
:1032D000FB1C1B7807221A4013009B009B18DB0085
:1032E00038337A68D318FB60FB6801225A700DE00E
:1032F000FB1C1A7813009B009B18DB007933FF330B
:103300007A68D318FB60FB6800225A70FB680122C0
:103310009A70FB1C1B7807221340DAB2FB681A7004
:103320007A68AE239B00D35C012B01D1022311E00C
:103330007A68AE239B000121D1547B681B68FA6830
:103340001100180005F0C0F97A68AE239B00002137
:10335000D15400231800BD4604B080BD80B584B0B0
:1033600000AF78600A00FB1C1A70FB1C1B780F2250
:103370001A407B685B689A4201D9012348E0FB1C34
:103380001B785BB2002B0FDAFB1C1B7807221A405C
:1033900013009B009B18DB0038337A68D318FB605E
:1033A000FB6801225A700FE0FB1C1B7807221A40B1
:1033B00013009B009B18DB007933FF337A68D31826
:1033C000FB60FB6800225A70FB6800229A70FB1CAD
:1033D0001B7807221340DAB2FB681A707A68AE23B2
:1033E0009B00D35C012B01D1022311E07A68AE234C
:1033F0009B000121D1547B681B68FA6811001800FA
:1034000005F0A4F97A68AE239B000021D154002373
:103410001800BD4604B080BD90B591B000AF786093
:10342000ABE27B681B685A6C36203B181A803B184D
:103430001B88DAB235243B190F210A401A703B1958
:103440001B78002B00D01DE13B181B881022134075
:1034500043D17B681B681B68DD4A1340FB607B68B7
:103460001B68FA68802109020A431A607B683833B6
:10347000BB62BB6A1B78DB00D64A944663441B6878
:103480001B0C9B059A0DBB6ADA61BB6A5A69BB6A61
:10349000DB69D218BB6A5A617B680021180009F009
:1034A0003BFE7B6834229B5CDBB2002B00D164E2E4
:1034B000BB6A9B69002B00D05FE27B6834229B5C77
:1034C000DBB2802252421343DAB27B681B68DA64B3
:1034D0007B683422002199544FE27B687933FF33B3
:1034E000BB627B681B681A6832217B181A807B18C4
:1034F0001A8880231B01134029D0BB6A1B78DB008C
:10350000B44A944663445B681B0C9B059A0DBB6AE6
:10351000DA617B6818687B68B02292009918BB6AF0
:103520009A88BB6ADB699BB205F04AFA7B681B6824
:103530001B68A94A13403B617B681B683A6980217C
:103540000A431A607B68180009F0B0FD15E23223C7
:10355000FB1800229B5E002B00DB0EE27B681B68E1
:103560001B689D4A1340BB617B681B68BA69802158
:103570000A431A60BB6A1B78DB00964A9446634490
:103580005B681B0C9B059A0DBB6ADA61BB6ADB6941
:10359000002B1AD0BB6A5B69002B16D07B681868B9
:1035A000BB6A5969BB6A9A88BB6ADB699BB205F042
:1035B00007FABB6A5A69BB6ADB69D218BB6A5A61EF
:1035C0007B680021180009F086FD824B5A68814B08
:1035D0001204120C5A60BB6A1B69002B0DD17D4B83
:1035E0005A687C4B7D490A405A607A4B5A68794B3D
:1035F000802109060A435A602DE0BB6A1B693E2BF5
:1036000013D8BB6A1B695B08BB63BB6A1B690122D9
:10361000134002D0BB6B0133BB636E4B5968BB6B6D
:103620009A066C4B0A435A6015E0BB6A1B695B093A
:10363000BB63BB6A1B691F22134002D1BB6B013BFA
:10364000BB63644B5A68BB6B9B061A43614B80217A
:1036500009060A435A607B681B681B68604A13406E
:103660007B617B698022520153407B617B698022B0
:10367000920153407B617B681B687A6959490A4310
:103680001A607AE17B681B681A0035217B181B7869
:103690009B00D3181A6832203B181A803B1800226E
:1036A0009B5E002B00DBE7E07B681B681A007B1841
:1036B0001B789B00D3181B68474A1340FB627B684A
:1036C0001B681A0008007B181B789B00D318FA6A45
:1036D00080210A431A603B181A7813009B009B183C
:1036E000DB007933FF337A68D318BB62BB6A9B7AFD
:1036F000002B1DD1BB6A1B78DB00364A944663441D
:103700005B681B0C9AB23E243B199205920D1A80FD
:103710003B191B88002B00D186E07B681868BB6AC8
:103720005969BB6A9A883B191B8805F049F97BE007
:10373000BB6ADB78022B0CD13E23FC183223FB182A
:103740001A88B96A7B68180000F028F90300238002
:103750006AE07B681B681A00BB6A1B789B00D31861
:103760001B68214A13407B627B681B681A00BB6A96
:103770001B789B00D3187A6A1C490A431A607B683D
:103780001B681A00BB6A1B789B00D3181A68802339
:10379000DB0113402CD0BB6A1B78DB000D4A94463A
:1037A00063441B681B0C9AB23E243B199205920D90
:1037B0001A803B191B88002B36D07B681868BB6ABF
:1037C0005969BB6ADA883B191B8805F0F9F82BE0C8
:1037D0000F8F7F07009800408F0F7F07FFFFFF8349
:1037E0008FBF7F07808000008F8F7F07C080000021
:1037F000BB6A1B78DB00674A944663445B681B0C1A
:103800009AB23E243B199205920D1A803B191B88EF
:10381000002B09D07B681868BB6A5969BB6A1A8992
:103820003B191B8805F0CCF8BB6ADA693E217B188E
:103830001B88D218BB6ADA61BB6A5A697B181B887D
:10384000D218BB6A5A61BB6A9B69002B05D07B18F2
:103850001A88BB6A1B699A4207D2BB6A1A787B68CE
:103860001100180009F037FC06E07B681B68BA6A93
:103870001100180003F030FE32203B181B88802214
:10388000134000D179E035217B181A7813009B0092
:103890009B18DB0038337A68D318BB627B681B68DF
:1038A0001A007B181B789B00D3181B683A4A1340F8
:1038B0003B627B681B681A007B181B789B00D3183F
:1038C0003A6A802109020A431A60BB6ADB78022B3C
:1038D00009D1BB6ADB78022B47D13B181A888023B9
:1038E0005B00134041D1BB6A1B78DB00294A944638
:1038F00063441B681B0C9AB21E217B189205920D23
:103900001A80BB6A9A697B181B889A4207D9BB6ADE
:103910009A697B181B88D21ABB6A9A6102E0BB6A5B
:1039200000229A61BB6A9B69002B07D1BB6A1A7897
:103930007B681100180009F0EFFB1EE0BB6A5A69B2
:103940001E217B181B88D218BB6A5A61BB6ADA69D0
:103950007B181B88D218BB6ADA617B681B68BA6A5D
:103960001100180003F0B8FD07E03223FB181A8895
:10397000B96A7B68180000F001F97B681B685A6C13
:1039800080231B02134000D04BE500231800BD46E6
:1039900011B090BD009800400F8F7F0790B58BB09D
:1039A00000AFF860B960BB1D1A80BB1D1A88802368
:1039B000DB01134069D0BB681B78DB006A4A944680
:1039C00063441B681B0C9AB21E217B189205920D52
:1039D0001A80BB689A697B181B889A4207D3BB6818
:1039E0009A697B181B88D21ABB689A6102E0BB688F
:1039F00000229A61BB689B69002B1AD1FB681B6887
:103A00001A00BB681B789B00D3181B68574A1340E9
:103A1000BB61BB69802292015340BB61FB681B689C
:103A20001A00BB681B789B00D318BA6950490A4337
:103A30001A60BB1D1B884022134015D0FB681B6811
:103A40001A00BB681B789B00D3181B68494A1340B7
:103A50007B61FB681B681A00BB681B789B00D3184E
:103A60007A6945490A431A601E243B191B88002BBA
:103A700000D172E0FB681868BB685969BB68DA88D6
:103A80003B191B8804F09CFF67E0BB681B78DB00D8
:103A9000354A944663445B681B0C9AB21E217B181E
:103AA0009205920D1A80BB689A697B181B889A420E
:103AB00007D3BB689A697B181B88D21ABB689A61C6
:103AC00002E0BB6800229A61BB689B69002B1AD197
:103AD000FB681B681A00BB681B789B00D3181B6827
:103AE000224A13407B627B6A8022920153407B62B0
:103AF000FB681B681A00BB681B789B00D3187A6AA6
:103B00001B490A431A60BB1D1B884022134015D174
:103B1000FB681B681A00BB681B789B00D3181B68E6
:103B2000144A13403B62FB681B681A00BB681B7891
:103B30009B00D3183A6A10490A431A601E243B19A5
:103B40001B88002B09D0FB681868BB685969BB68E3
:103B50001A893B191B8804F033FF1E23FB181B88AE
:103B60001800BD460BB090BD009800408FBF7F0786
:103B7000808000008F8F7F07C080000080B58EB0EE
:103B800000AFF860B960BB1D1A80BB1D1B884022C6
:103B9000134000D146E1BB681B78DB00C54A944660
:103BA00063441B681B0C9AB232217B189205920D5C
:103BB0001A80BB689A697B181B889A4207D9BB6830
:103BC0009A697B181B88D21ABB689A6102E0BB68AD
:103BD00000229A61BB689B69002B24D1BB681A78CC
:103BE000FB681100180009F097FABB1D1A888023A2
:103BF000DB01134000D163E2FB681B681A00BB685D
:103C00001B789B00D3181B68AB4A1340BB61FB6851
:103C10001B681A00BB681B789B00D318BA69A749B8
:103C20000A431A604CE2BB1D1A888023DB01134053
:103C300015D0FB681B681A00BB681B789B00D31863
:103C40001B689D4A1340FB62FB681B681A00BB6837
:103C50001B789B00D318FA6A98490A431A60BB681C
:103C600024229B5C012B00D02AE2BB685A693221D6
:103C70007B181B88D218BB685A61BB68DA697B184D
:103C80001B88D218BB68DA61BB681A6ABB681B69FB
:103C90009A4209D3BB681B69BB62BB681A6ABB6ADC
:103CA000D21ABB681A6216E0BB681B6A002B08D1E7
:103CB0003223FB181B88BB62BB6824220021995465
:103CC00009E0BB68242200219954BB681B6ABB62CF
:103CD000BB6800221A62BB685B78002B72D1BB689C
:103CE0001B78DB00734A944663441A68BB681B78F0
:103CF000DB0070498C4663441204120C1A60BB6AE4
:103D0000002B21D1BB681B78DB006A4A94466344D0
:103D10001A68BB681B78DB0066498C4663446849B7
:103D20000A401A60BB681B78DB00624A9446634411
:103D30001A68BB681B78DB005E498C4663448021AF
:103D400009060A431A6062E0BB6A3E2B1BD8BB6AB5
:103D50005B08FB61BB6A0122134002D0FB6901339F
:103D6000FB61BB681B78DB00524A944663441968C8
:103D7000FB699A06BB681B78DB004E4884466344A7
:103D80000A431A6043E0BB6A5B09FB61BB6A1F22FE
:103D9000134002D1FB69013BFB61BB681B78DB0070
:103DA000444A944663441A68FB699B061A43BB68FD
:103DB0001B78DB003F498C466344802109060A4397
:103DC0001A6024E0BB685B78012B20D1BB681B78AC
:103DD000DB00384A944663441A68BB681B78DB00F2
:103DE00034498C4663441204120C1A60BB681B7879
:103DF000DB00304A944663441968BB6A1A04BB6806
:103E00001B78DB002B48844663440A431A60FB6836
:103E10001868BB685969BB68DA88BB6A9BB204F052
:103E200057FD4DE1BB681B78DB00224A9446634492
:103E30005B681B0C9AB232217B189205920D1A8096
:103E4000BB689A697B181B889A4207D3BB689A693A
:103E50007B181B88D21ABB689A6102E0BB680022FB
:103E60009A61BB689B69002B2CD1BB681A78FB68F0
:103E70001100180009F050F9BB1D1A888023DB01DE
:103E8000134000D01CE1FB681B681A00BB681B785C
:103E90009B00D3181B68084A13407B63FB681B68B0
:103EA0001A00BB681B789B00D3187A6B03490A433E
:103EB0001A6005E1009800408F8F7F0780C00000E6
:103EC000FFFFFF83BB1D1A888023DB01134015D140
:103ED000FB681B681A00BB681B789B00D3181B6823
:103EE000894A13403B62FB681B681A00BB681B7859
:103EF0009B00D3183A6A85490A431A60BB6824229A
:103F00009B5C012B00D0DBE0BB685A6932217B1837
:103F10001B88D218BB685A61BB68DA697B181B889A
:103F2000D218BB68DA61BB681A6ABB681B699A421F
:103F300009D3BB681B69BB62BB681A6ABB6AD21A29
:103F4000BB681A6216E0BB681B6A002B08D13223DB
:103F5000FB181B88BB62BB6824220021995409E02E
:103F6000BB681B6ABB62BB6800221A62BB68242262
:103F700000219954BB685B78002B72D1BB681B7819
:103F8000DB00634A944663445A68BB681B78DB00D5
:103F90005F498C4663441204120C5A60BB6A002BC2
:103FA00021D1BB681B78DB00594A944663445A68A8
:103FB000BB681B78DB0056498C46634455490A4070
:103FC0005A60BB681B78DB00514A944663445A68C8
:103FD000BB681B78DB004E498C4663448021090690
:103FE0000A435A6062E0BB6A3E2B1BD8BB6A5B087F
:103FF0007B62BB6A0122134002D07B6A01337B6281
:10400000BB681B78DB00424A9446634459687B6A6C
:104010009A06BB681B78DB003D48844663440A432C
:104020005A6043E0BB6A5B097B62BB6A1F22134094
:1040300002D17B6A013B7B62BB681B78DB00344AA0
:10404000944663445A687B6A9B061A43BB681B7894
:10405000DB002F498C466344802109060A435A60DD
:1040600024E0BB685B78012B20D1BB681B78DB00A8
:10407000274A944663445A68BB681B78DB0024498E
:104080008C4663441204120C5A60BB681B78DB0038
:104090001F4A944663445968BB6A1A04BB681B787C
:1040A000DB001B48844663440A435A60FB68186877
:1040B000BB685969BB681A89BB6A9BB204F008FCEB
:1040C000FB681B681A00BB681B789B00D3181B6831
:1040D000114A13407B617B69102253407B617B69ED
:1040E000202253407B61FB681B681A00BB681B7869
:1040F0009B00D3187A6909490A431A600023180003
:10410000BD460EB080BDC0468F8F7F0780C00000C7
:1041100000980040FFFFFF83BF8F7F078080000073
:1041200090B587B000AFF860080011007B600A24EA
:104130003B19021C1A800823FB180A1C1A80210054
:104140007B181B88802213409BB2002B0CD07B185D
:104150001B8807221A4013009B009B18DB00383392
:10416000FA68D3187B610BE00A23FB181A88130046
:104170009B009B18DB007933FF33FA68D3187B610F
:104180000823FB181B88002B07D17B6900229A7239
:104190007B689AB27B699A800BE07B6901229A72F4
:1041A0007B689AB27B69DA807B681B0C9AB27B6968
:1041B0001A8100231800BD4607B090BD80B584B0B9
:1041C00000AF78607B681B68FB607A68BE239B0049
:1041D0000121D1507A68BC239B000021D154FB6897
:1041E0005B6D01221A43FB685A65FB685B6D022216
:1041F0001A43FB685A6500231800BD4604B080BD11
:1042000080B584B000AF7860194B1B68194A134021
:104210001900174B7A680A431A607A6880239B005A
:104220009A421FD1144B1A6813005B009B185B0065
:1042300012491800FBF768FF03000133FB6008E038
:10424000FB68002B03D0FB68013BFB6001E003230C
:1042500009E0074B5A698023DB001A408023DB000A
:104260009A42EDD000231800BD4604B080BDC04680
:1042700000700040FFF9FFFF0000002040420F00E7
:1042800080B500AF034B9A68E023DB0113401800B0
:10429000BD4680BD0010024080B588B000AF786098
:1042A0007B68002B02D1012300F056FB7B681B6862
:1042B0000122134000D17DE0C34B9B68382213409C
:1042C000BB61C14BDB68032213407B61BB69102BD0
:1042D00002D17B69032B02D0BB69082B0CD1BA4BEE
:1042E0001A6880239B02134063D07B685B68002BB5
:1042F0005FD1012300F030FB7B685A6880235B02AA
:104300009A4207D1B04B1A68AF4B802149020A4349
:104310001A6020E07B685A68A023DB029A420ED123
:10432000A94B1A68A84B8021C9020A431A60A64B00
:104330001A68A54B802149020A431A600BE0A24B80
:104340001A68A14BA1490A401A609F4B1A689E4BFC
:104350009F490A401A607B685B68002B14D0FCF709
:1043600011FF03003B6108E0FCF70CFF02003B6912
:10437000D31A642B01D90323EEE2934B1A688023EE
:104380009B021340F0D015E0FCF7FCFE03003B61FC
:1043900008E0FCF7F7FE02003B69D31A642B01D951
:1043A0000323D9E2884B1A6880239B021340F0D183
:1043B00000E0C0467B681B680222134000D199E0F0
:1043C000814B9B6838221340BB617F4BDB68032223
:1043D00013407B61BB69102B02D17B69022B02D099
:1043E000BB69002B35D1784B1A688023DB00134062
:1043F00005D07B68DB68002B01D10123ACE2724B56
:104400005B68744A134019007B685B691A026E4B43
:104410000A435A60BB69002B12D16B4B1B686E4A72
:10442000134019007B681A69674B0A431A60664B90
:104430001B68DB0A07221340684ADA40684B1A609F
:10444000684B1B681800FCF797FD031E51D0012331
:1044500082E27B68DB68002B30D05B4B1B685E4AD6
:10446000134019007B681A69574B0A431A60564B70
:104470001A68554B802149000A431A60FCF782FEF6
:1044800003003B6108E0FCF77DFE02003B69D31AA4
:10449000022B01D903235FE24B4B1A688023DB0018
:1044A0001340F0D0484B5B684A4A134019007B68C0
:1044B0005B691A02444B0A435A601BE0424B1A687C
:1044C000414B49490A401A60FCF75CFE03003B611E
:1044D00008E0FCF757FE02003B69D31A022B01D912
:1044E000032339E2384B1A688023DB001340F0D1F4
:1044F00000E0C0467B681B680822134047D0324B5F
:104500009B6838221340182B0AD12F4B1B6E0222B6
:1045100013403CD07B689B69002B38D101231BE200
:104520007B689B69002B19D0274B1A6E264B012103
:104530000A431A66FCF726FE03003B6108E0FCF71D
:1045400021FE02003B69D31A022B01D9032303E2A7
:104550001D4B1B6E02221340F1D018E01A4B1A6E4D
:10456000194B01218A431A66FCF70CFE03003B61DC
:1045700008E0FCF707FE02003B69D31A022B01D9C1
:104580000323E9E1104B1B6E02221340F1D17B683B
:104590001B680422134000D1C6E01F23FB18002231
:1045A0001A70094B9B6838221340202B1ED1064BF2
:1045B000DB6D0222134000D1B6E07B689B68002BC4
:1045C00000D0B1E00123C7E100100240FFFFFEFF71
:1045D000FFFFFBFFFF80FFFFFFC7FFFF0024F4008A
:1045E0000000002004000020FFFEFFFFB84BDA6B44
:1045F00080235B05134001D1012300E00023002B41
:1046000011D0B34BDA6BB24B802149050A43DA6310
:10461000AF4BDA6B80235B051340FB60FB681F2305
:10462000FB1801221A70AB4B1A6880235B00134001
:104630001AD1A84B1A68A74B802149000A431A6077
:10464000FCF7A0FD03003B6108E0FCF79BFD0200C6
:104650003B69D31A022B01D903237DE19D4B1A68D4
:1046600080235B001340F0D07B689B68012B06D150
:10467000974BDA6D964B01210A43DA651CE07B68A3
:104680009B68052B0CD1924BDA6D914B04210A43A8
:10469000DA658F4BDA6D8E4B01210A43DA650BE048
:1046A0008B4BDA6D8A4B01218A43DA65884BDA6DD0
:1046B000874B04218A43DA657B689B68002B14D002
:1046C000FCF760FD03003B6109E0FCF75BFD0200C5
:1046D0003B69D31A804A934201D903233CE17C4BC6
:1046E000DB6D02221340F0D013E0FCF74BFD03001A
:1046F0003B6109E0FCF746FD02003B69D31A764AAC
:10470000934201D9032327E1714BDB6D0222134051
:10471000F0D11F23FB181B78012B05D16C4BDA6BF2
:104720006B4B6E490A40DA637B681B68202213409A
:1047300039D07B68DB69002B1BD0654B1A68644B52
:104740008021C9030A431A60FCF71CFD03003B618A
:1047500008E0FCF717FD02003B69D31A022B01D9D0
:104760000323F9E05A4B1A6880231B041340F0D04E
:1047700019E0574B1A68564B59490A401A60FCF722
:1047800001FD03003B6108E0FCF7FCFC02003B6913
:10479000D31A022B01D90323DEE04D4B1A68802384
:1047A0001B041340F0D17B681B6A002B00D1D2E0C0
:1047B000474B9B6838221340102B00D181E07B6867
:1047C0001B6A022B56D1424B1A68414B45490A409D
:1047D0001A60FCF7D7FC03003B6108E0FCF7D2FC51
:1047E00002003B69D31A022B01D90323B4E0384BF2
:1047F0001A6880239B041340F0D1354BDB683A4A9A
:10480000134019007B685A6A7B689B6A1A437B686D
:10481000DB6A1B021A437B681B6B1A437B685B6B6A
:104820001A437B689B6B1A43294B0A43DA60284B77
:104830001A68274B802149040A431A60244BDA681E
:10484000234B802149050A43DA60FCF79BFC0300F7
:104850003B6108E0FCF796FC02003B69D31A022B8F
:1048600001D9032378E01A4B1A6880239B04134074
:10487000F0D070E0164B1A68154B1A490A401A60BE
:10488000134BDA68124B03218A43DA60104BDA6863
:104890000F4B16490A40DA60FCF774FC03003B61D9
:1048A00008E0FCF76FFC02003B69D31A022B01D928
:1048B000032351E0064B1A6880239B041340F0D178
:1048C00049E07B681B6A012B12D1012344E0C046FA
:1048D000001002400070004088130000FFFFFFEF4F
:1048E000FFFFBFFFFFFFFFFE8C80C111FFFFFEEE49
:1048F0001B4BDB687B617B6903221A407B685B6A28
:104900009A4226D17B6970221A407B689B6A9A4240
:104910001FD17A69FE23DB011A407B68DB6A1B0228
:104920009A4216D17A69F8239B031A407B681B6B65
:104930009A420ED17A69E0231B051A407B685B6BB3
:104940009A4206D17B695B0F5A077B689B6B9A4240
:1049500001D0012300E000231800BD4608B080BD4F
:104960000010024080B584B000AF786039607B6889
:10497000002B01D10123E9E0764B1B68072213408D
:104980003A689A421ED9734B1B6807229343190059
:10499000704B3A680A431A60FCF7F4FB0300FB60B3
:1049A00009E0FCF7EFFB0200FB68D31A6A4A934266
:1049B00001D90323CAE0674B1B68072213403A68FA
:1049C0009A42EED17B681B680222134015D07B68A7
:1049D0001B680422134006D0604B9A685F4BE021AD
:1049E000C9010A439A605D4B9B685D4A13401900F8
:1049F0007B689A68594B0A439A607B681B6801225E
:104A0000134057D07B685B68012B07D1534B1A6862
:104A100080239B0213402BD1012397E07B685B68C6
:104A2000022B07D14D4B1A6880239B0413401FD1E2
:104A300001238BE07B685B68002B07D1474B1A682A
:104A40008023DB00134013D101237FE07B685B6888
:104A5000032B06D1414B1B6E0222134008D10123C8
:104A600074E03E4BDB6D0222134001D101236DE067
:104A70003A4B9B680722934319007B685A68374B6F
:104A80000A439A60FCF77EFB0300FB6009E0FCF739
:104A900079FB0200FB68D31A2F4A934201D9032302
:104AA00054E02E4B9B6838221A407B685B68DB0021
:104AB0009A42ECD1274B1B68072213403A689A426E
:104AC0001ED2244B1B68072293431900214B3A68DE
:104AD0000A431A60FCF756FB0300FB6009E0FCF791
:104AE00051FB0200FB68D31A1B4A934201D90323EE
:104AF0002CE0184B1B68072213403A689A42EED10B
:104B00007B681B680422134009D0144B9B68154A2C
:104B1000134019007B68DA68104B0A439A6000F072
:104B200029F801000D4B9B681B0A0F221A400E4BFF
:104B30009200D3581F2213400A00DA400B4B1A6030
:104B40000B4B1B681800FCF717FA03001800BD4652
:104B500004B080BD00200240881300000010024015
:104B6000FFF0FFFFFF8FFFFF58DA00080000002072
:104B70000400002080B586B000AF3C4B9B68382213
:104B800013400FD1394B1B68DB0A07221340012267
:104B90009A4013003B6039683548FBF7B5FA0300CB
:104BA0003B615DE0314B9B6838221340082B02D1FA
:104BB000304B3B6154E02D4B9B6838221340102B47
:104BC00038D12A4BDB6803221340FB60274BDB689C
:104BD0001B09072213400133BB60FB68032B0DD177
:104BE000B9682448FBF790FA030019001F4BDB68F3
:104BF0001B0A7F2213404B437B610DE0B9681C48C0
:104C0000FBF782FA03001900184BDB681B0A7F22AE
:104C100013404B437B61C046144BDB685B0F07229C
:104C2000134001337B6079687869FBF76DFA030004
:104C30003B6115E00D4B9B6838221340202B03D1BC
:104C400080231B023B610BE0084B9B68382213401A
:104C5000182B03D1FA23DB013B6101E000233B6108
:104C60003B691800BD4606B080BDC046001002403A
:104C70000024F40000127A0080B500AF024B1B68DC
:104C80001800BD4680BDC04600000020B0B500AF92
:104C9000FFF7F2FF0400FFF7F3FA03001A0B054BCE
:104CA0009200D3581F221340DC4023001800BD4659
:104CB000B0BDC04698DA000880B582B000AF786019
:104CC00039607B6807221A600E4B9B6807221A40E6
:104CD0007B685A600B4B9A68F0231B011A407B6873
:104CE0009A60084B9A68E023DB011A407B68DA601F
:104CF000054B1B6807221A403B681A60C046BD4638
:104D000002B080BD001002400020024080B586B095
:104D100000AF78601323FB1800221A701223FB18CF
:104D200000221A707B681A6880239B02134000D10E
:104D3000ADE011203B1800221A70474BDA6B80233C
:104D40005B05134010D1444BDA6B434B802149057E
:104D50000A43DA63404BDA6B80235B051340BB6088
:104D6000BB683B1801221A703C4B1A683B4B8021F0
:104D700049000A431A60FCF705FA0300FB600BE0E8
:104D8000FCF700FA0200FB68D31A022B04D91323A4
:104D9000FB1803221A7005E0304B1A6880235B0071
:104DA0001340EDD01323FB181B78002B5ED12A4B48
:104DB000DA6DC0239B0013407B617B69002B19D007
:104DC0007B681B6C7A699A4214D0234BDB6D244AB2
:104DD00013407B61204BDA6D1F4B802149020A434F
:104DE000DA651D4BDA6D1C4B1E490A40DA651A4B19
:104DF0007A69DA657B690122134016D0FCF7C2F9A3
:104E00000300FB600CE0FCF7BDF90200FB68D31A5D
:104E1000154A934204D91323FB1803221A7004E0A5
:104E20000D4BDB6D02221340EDD01323FB181B78D2
:104E3000002B0AD1084BDB6D094A134019007B682F
:104E40001A6C054B0A43DA6516E01223FB1813228D
:104E5000BA1812781A700FE000100240007000407B
:104E6000FFFCFFFFFFFFFEFF881300001223FB186B
:104E70001322BA1812781A701123FB181B78012B11
:104E800005D1B64BDA6BB54BB5490A40DA637B689E
:104E90001B680122134009D0B04B5B6D0322934382
:104EA00019007B685A68AD4B0A435A657B681B68DA
:104EB0000222134009D0A94B5B6D0C2293431900C9
:104EC0007B689A68A54B0A435A657B681B68042275
:104ED000134009D0A14B5B6D3022934319007B68CE
:104EE000DA689E4B0A435A657B681B6810221340A0
:104EF00009D09A4B5B6D9B4A134019007B681A6975
:104F0000964B0A435A657B681A6880235B011340FD
:104F100009D0924B5B6D944A134019007B685A6923
:104F20008E4B0A435A657B681A6880239B001340A6
:104F300009D08A4B5B6D8D4A134019007B689A6AD1
:104F4000864B0A435A657B681A688023DB0013404E
:104F500009D0824B5B6D864A134019007B68DA6A80
:104F60007E4B0A435A657B681B682022134009D098
:104F70007A4B5B6D7F4A134019007B689A69774BC7
:104F80000A435A657B681B684022134009D0734B63
:104F90005B6D794A134019007B68DA696F4B0A43ED
:104FA0005A657B681A688023DB01134015D06B4B70
:104FB0005B6D9B0099087B681A6B684B0A435A65C6
:104FC0007B681A6B8023DB059A4206D1634BDA6853
:104FD000624B802149020A43DA607B681A688023A9
:104FE0001B03134009D05D4B5B6D402293431900B6
:104FF0007B685A6B594B0A435A657B681A68802351
:105000009B03134016D0554B5B6D5C4A134019004F
:105010007B689A6B514B0A435A657B689A6B802375
:10502000DB039A4206D14D4BDA684C4B8021490490
:105030000A43DA607B681A688023DB03134016D0CA
:10504000464B5B6D4E4A134019007B68DA6B434B4D
:105050000A435A657B68DA6B80235B049A4206D167
:105060003E4BDA683D4B802149040A43DA607B6895
:105070001A6880231B01134014D0384B9B6D032208
:10508000934319007B681A6A344B0A439A657B681C
:105090001B6A012B06D1314BDA68304B8021490263
:1050A0000A43DA607B681A6880239B01134014D09E
:1050B0002A4B9B6D0C22934319007B685A6A274B3D
:1050C0000A439A657B685B6A042B06D1234BDA6836
:1050D000224B802149020A43DA607B681A688023E8
:1050E0005B04134016D01D4B9B6D224A13401900E0
:1050F0007B685A6C194B0A439A657B685A6C80230B
:105100009B019A4206D1154BDA68144B8021490461
:105110000A43DA607B681A6880239B04134016D028
:105120000E4B9B6D104A134019007B689A6C0B4B19
:105130000A439A657B689A6C80235B009A4206D189
:10514000064BDA68054B802149040A43DA601223D2
:10515000FB181B781800BD4606B080BD0010024049
:10516000FFFFFFEFFFF3FFFFFFFCFFFFFFFFF3FF7A
:10517000FFFFCFFFFFCFFFFFFF3FFFFFFFFFBFFF9F
:10518000FFFFFFFE80B584B000AF78607B68002B26
:1051900001D10123A8E07B685B6A002B09D17B6801
:1051A0005A6882235B009A4209D07B680022DA6148
:1051B00005E07B6800221A617B6800225A617B68E7
:1051C00000229A627B685D229B5CDBB2002B07D1D8
:1051D0007B685C22002199547B681800FBF72EFE47
:1051E0007B685D22022199547B681B681A687B6882
:1051F0001B6840218A431A607B68DA68E023DB0081
:105200009A4202D90023FB6002E080235B01FB602D
:105210007B68DA68F0231B019A4208D07B68DA6861
:10522000E023DB009A4202D07B6800229A627B680E
:105230005A6882235B001A407B68996884231B02AA
:105240000B401A437B681B6902210B401A437B68A1
:105250005B6901210B401A437B68996980239B009D
:105260000B401A437B68DB6938210B401A437B688B
:105270001B6A80210B401A4311007B689A6A8023C5
:105280009B011A407B681B680A431A607B689B6914
:105290001B0C04221A407B685B6A10210B401A43E6
:1052A0007B685B6B08210B401A437B68D968F0234D
:1052B0001B010B401A431100FA6880235B011A405E
:1052C0007B681B680A435A607B681B68DA697B68E5
:1052D0001B6807490A40DA617B6800221A667B680E
:1052E0005D220121995400231800BD4604B080BD01
:1052F000FFF7FFFF80B582B000AF78607B68002BBE
:1053000001D101234AE07B683D229B5CDBB2002B8C
:1053100007D17B683C22002199547B68180000F07B
:1053200041F87B683D22022199547B681A687B68AA
:1053300004331900100000F0F1F97B6848220121C4
:1053400099547B683E22012199547B683F220121B8
:1053500099547B684022012199547B6841220121A4
:1053600099547B684222012199547B684322012190
:1053700099547B684422012199547B68452201217C
:1053800099547B684622012199547B684722012168
:1053900099547B683D220121995400231800BD4691
:1053A00002B080BD80B582B000AF7860C046BD4617
:1053B00002B080BD80B584B000AF78607B683D22CC
:1053C0009B5CDBB2012B01D0012347E07B683D22CF
:1053D000022199547B681B68DA687B681B6801218D
:1053E0000A43DA607B681B681E4A934214D07B68CC
:1053F0001A688023DB059A420ED07B681B681A4A24
:10540000934209D07B681B68184A934204D07B689A
:105410001B68174A934216D17B681B689B68154A24
:105420001340FB60FB68062B16D0FA6880235B02F2
:105430009A4211D07B681B681A687B681B6801213F
:105440000A431A6008E07B681B681A687B681B685F
:1054500001210A431A6000E0C04600231800BD463F
:1054600004B080BD002C0140000400400008004052
:10547000004001400700010080B582B000AF7860B5
:105480007B681B681B6902221340022B24D17B68B6
:105490001B68DB6802221340022B1DD17B681B684E
:1054A000032252421A617B6801221A777B681B68CB
:1054B0009B690322134004D07B68180000F016F9A2
:1054C00007E07B68180000F009F97B68180000F01D
:1054D00015F97B6800221A777B681B681B69042218
:1054E0001340042B25D17B681B68DB680422134022
:1054F000042B1ED17B681B68052252421A617B680F
:1055000002221A777B681B689A69C0239B001340AC
:1055100004D07B68180000F0E9F807E07B68180009
:1055200000F0DCF87B68180000F0E8F87B680022E7
:105530001A777B681B681B6908221340082B24D14B
:105540007B681B68DB6808221340082B1DD17B6831
:105550001B68092252421A617B6804221A777B6811
:105560001B68DB690322134004D07B68180000F03D
:10557000BDF807E07B68180000F0B0F87B68180001
:1055800000F0BCF87B6800221A777B681B681B69F7
:1055900010221340102B25D17B681B68DB6810227A
:1055A0001340102B1ED17B681B68112252421A61D6
:1055B0007B6808221A777B681B68DA69C0239B0026
:1055C000134004D07B68180000F090F807E07B6877
:1055D000180000F083F87B68180000F08FF87B68F3
:1055E00000221A777B681B681B6901221340012B7C
:1055F0000FD17B681B68DB6801221340012B08D1A7
:105600007B681B68022252421A617B681800FBF714
:10561000E1FA7B681B681B6980221340802B0FD145
:105620007B681B68DB6880221340802B08D17B6875
:105630001B68812252421A617B68180000F000F951
:105640007B681B681A6980235B001A4080235B001B
:105650009A420ED17B681B68DB6880221340802B46
:1056600007D17B681B681C4A1A617B68180000F030
:10567000EFF87B681B681B6940221340402B0FD159
:105680007B681B68DB6840221340402B08D17B6895
:105690001B68412252421A617B68180000F036F8FC
:1056A0007B681B681B6920221340202B0FD17B686D
:1056B0001B68DB6820221340202B08D17B681B6805
:1056C000212252421A617B68180000F0B1F8C046EE
:1056D000BD4602B080BDC046FFFEFFFF80B582B070
:1056E00000AF7860C046BD4602B080BD80B582B0D4
:1056F00000AF7860C046BD4602B080BD80B582B0C4
:1057000000AF7860C046BD4602B080BD80B582B0B3
:1057100000AF7860C046BD4602B080BD80B584B0A1
:1057200000AF786039607B681B68FB607B68384A33
:1057300093420CD07A688023DB059A4207D07B68BD
:10574000344A934203D07B68334A934208D1FB68C2
:1057500070229343FB603B685B68FA681343FB600D
:105760007B682B4A93421CD07A688023DB059A42DF
:1057700017D07B68274A934213D07B68264A93420E
:105780000FD07B68254A93420BD07B68244A934212
:1057900007D07B68234A934203D07B68224A934216
:1057A00008D1FB68214A1340FB603B68DB68FA685C
:1057B0001343FB60FB68802293431A003B685B69DC
:1057C0001343FB607B68FA681A603B689A687B68E1
:1057D000DA623B681A687B689A627B680C4A93427B
:1057E0000BD07B680E4A934207D07B680D4A9342E8
:1057F00003D07B680C4A934203D13B681A697B68EB
:105800001A637B6801225A61C046BD4604B080BD60
:10581000002C01400004004000080040002000402F
:10582000004001400044014000480140FFFCFFFFF0
:1058300080B582B000AF7860C046BD4602B080BD82
:1058400080B582B000AF7860C046BD4602B080BD72
:1058500080B582B000AF7860C046BD4602B080BD62
:1058600080B582B000AF78607B68002B01D1012346
:1058700046E07B6884229B58002B07D17B688022FE
:10588000002199547B681800FBF722FB7B68842277
:10589000242199507B681B681A687B681B6801216A
:1058A0008A431A607B68180000F084FA0300012B19
:1058B00001D1012324E07B689B6A002B03D07B6825
:1058C000180000F0FDFD7B681B685A687B681B6848
:1058D0000D490A405A607B681B689A687B681B68A0
:1058E0002A218A439A607B681B681A687B681B6858
:1058F00001210A431A607B68180000F095FE03003E
:105900001800BD4602B080BDFFB7FFFF80B588B06C
:1059100000AF78607B681B68DB69FB617B681B6894
:105920001B68BB617B681B689B687B61FB69BB4A2A
:1059300013403B613B69002B17D1FB6920221340C8
:1059400013D0BB692022134004D17A6980235B0500
:1059500013400AD07B681B6F002B00D1FDE17B68F0
:105960001B6F7A6810009847F7E13B69002B00D164
:10597000DEE07B69AA4A134004D1BB69A94A1340FF
:1059800000D1D5E0FB690122134010D0BA69802311
:105990005B0013400BD07B681B6801221A627B6896
:1059A0008C229B5801221A437B688C215A50FB6938
:1059B000022213400FD07B69012213400BD07B6879
:1059C0001B6802221A627B688C229B5804221A43AD
:1059D0007B688C215A50FB69042213400FD07B69ED
:1059E000012213400BD07B681B6804221A627B687B
:1059F0008C229B5802221A437B688C215A50FB69E7
:105A00000822134013D0BB692022134003D17B69C5
:105A1000834A13400BD07B681B6808221A627B689C
:105A20008C229B5808221A437B688C215A50FA69B1
:105A300080231B01134011D0BA698023DB0413407B
:105A40000CD07B681B68802212011A627B688C2252
:105A50009B5820221A437B688C215A507B688C22E9
:105A60009B58002B00D17AE1FB692022134011D012
:105A7000BB692022134004D17A6980235B0513405F
:105A800008D07B681B6F002B04D07B681B6F7A6883
:105A9000100098477B688C229B58FB607B681B68D2
:105AA0009B6840221340402B03D0FB682822134000
:105AB00033D07B68180000F083FE7B681B689B680E
:105AC00040221340402B23D17B681B689A687B6877
:105AD0001B6840218A439A607B68DB6F002B12D0E1
